:020000040800F2
:1000000000280020B1100008411000084710000827
:100010004D1000085310000859100008000000009F
:100020000000000000000000000000005F10000859
:100030006B10000800000000771000088310000813
:10004000F9100008F9100008F9100008F91000086C
:10005000F9100008F9100008F9100008F91000085C
:10006000F9100008F9100008F9100008F91000084C
:10007000F9100008F9100008F9100008F91000083C
:10008000F9100008F9100008F9100008F91000082C
:10009000F9100008F9100008F9100008F91000081C
:1000A000F9100008F9100008F9100008F91000080C
:1000B00091100008F910000800000000F910000875
:1000C000F91000080000000000000000F91000080E
:1000D00000000000F9100008F910000800000000FE
:1000E000F9100008F9100008F910000800000000DD
:1000F0000000000000000000000000000000000000
:0C01000000000000000000005FF808F1A3
:10010C0010B5054C237833B9044B13B10448AFF345
:10011C0000800123237010BD14000020000000009B
:10012C005027000808B5034B1BB103490348AFF334
:10013C00008008BD000000001800002050270008B7
:10014C0080B483B000AF00237B6011E00D4A7B6864
:10015C00134401221A700C4A7B68134401221A7052
:10016C000A4A7B68134401221A707B6801337B6056
:10017C007B68022BEADD00BF00BF0C37BD4680BC9C
:10018C00704700BF3C0000204000002038000020D9
:10019C0080B582B000AF00237B6055E02E4A7B68AF
:1001AC00134419782D4A7B6813440A461A702C4A5A
:1001BC007B6832F8133019462A4801F083FA03465B
:1001CC001946254A7B6813440A461A70224A7B68F2
:1001DC0013441A7821497B680B441B789A4208D146
:1001EC001D4A7B68134419781F4A7B6813440A46DE
:1001FC001A701D4A7B6813441B78002B17D11B4ABD
:10020C007B6832F81330B3F5967F0AD2174A7B68B5
:10021C0032F81330013399B2144A7B6822F8131068
:10022C000FE0134A7B68134401221A7009E00F4A4D
:10023C007B68002122F813100D4A7B6813440022BE
:10024C001A707B6801337B607B68022BA6DD00BFD4
:10025C0000BF0837BD4680BD3C0000204000002098
:10026C000000002000080140380000204800002059
:10027C004400002080B483B000AF78607B68022B10
:10028C0001DD012308E0074A7B6813441B78002B2F
:10029C0001D1012300E0002318460C37BD4680BC79
:1002AC00704700BF3800002080B483B000AF786086
:1002BC007B68022B01DD002308E0074A7B681344AE
:1002CC001B78012B0CBF01230023DBB218460C3723
:1002DC00BD4680BC704700BF4400002080B500AF15
:1002EC0001220121114801F004FA012202210F48D8
:1002FC0001F0FFF9012204210C4801F0FAF9012266
:10030C0008210A4801F0F5F901221021074801F0F3
:10031C00F0F901222021054801F0EBF901224021DE
:10032C00024801F0E6F900BF80BD00BF000C01409F
:10033C0080B582B000AF7860FFF7D0FF7B68092BE7
:10034C0000F2808101A252F823F000BF8103000863
:10035C00C90300081104000859040008A10400088E
:10036C00E90400083105000879050008C1050008FA
:10037C000906000800220121B44801F0BAF9002254
:10038C000221B24801F0B5F900220421AF4801F076
:10039C00B0F900220821AD4801F0ABF90022102180
:1003AC00AA4801F0A6F900222021A84801F0A1F9E1
:1003BC0001224021A54801F09CF943E101220121D1
:1003CC00A24801F096F900220221A04801F091F90F
:1003DC00002204219D4801F08CF9012208219B4840
:1003EC0001F087F901221021984801F082F90122CD
:1003FC002021964801F07DF901224021934801F01B
:10040C0078F91FE100220121904801F072F90022D5
:10041C0002218E4801F06DF9012204218B4801F074
:10042C0068F900220821894801F063F900221021A3
:10043C00864801F05EF901222021844801F059F927
:10044C0000224021814801F054F9FBE000220121F7
:10045C007E4801F04EF9002202217C4801F049F956
:10046C0000220421794801F044F900220821774840
:10047C0001F03FF901221021744801F03AF90122F0
:10048C002021724801F035F9002240216F4801F01B
:10049C0030F9D7E0012201216C4801F02AF9002241
:1004AC0002216A4801F025F900220421674801F075
:1004BC0020F901220821654801F01BF901221021C5
:1004CC00624801F016F900222021604801F011F970
:1004DC00002240215D4801F00CF9B3E0002201211B
:1004EC005A4801F006F901220221584801F001F99D
:1004FC0000220421554801F0FCF800220821534841
:10050C0001F0F7F801221021504801F0F2F8002216
:10051C0020214E4801F0EDF8002240214B4801F01B
:10052C00E8F88FE000220121484801F0E2F80122AE
:10053C000221464801F0DDF800220421434801F075
:10054C00D8F800220821414801F0D3F800221021EC
:10055C003E4801F0CEF8002220213C4801F0C9F8B9
:10056C0000224021394801F0C4F86BE0002201213F
:10057C00364801F0BEF800220221344801F0B9F8E7
:10058C0000220421314801F0B4F8012208212F483F
:10059C0001F0AFF8012210212C4801F0AAF8012239
:1005AC0020212A4801F0A5F801224021274801F01A
:1005BC00A0F847E000220121244801F09AF800221B
:1005CC000221224801F095F8002204211F4801F075
:1005DC0090F8002208211D4801F08BF80022102110
:1005EC001A4801F086F800222021184801F081F801
:1005FC0000224021154801F07CF823E00022012163
:10060C00124801F076F800220221104801F071F82E
:10061C00002204210D4801F06CF8002208210B483F
:10062C0001F067F801221021084801F062F800225D
:10063C002021064801F05DF800224021034801F01A
:10064C0058F800BF00BF0837BD4680BD000C014004
:10065C0080B500AF00F04CFD00F026F800F0ACF8CF
:10066C0000F05EF8FFF76CFD0C4801F0ABFC4FF4AA
:10067C00FA7000F0DFFB40F6B83000F0F7FB00F04A
:10068C000DF9074B1B68012BF9D12021054801F00E
:10069C0048F84FF4FA7000F0CDFBF0E7640000204E
:1006AC00580000200008014080B590B000AF07F161
:1006BC00180328220021184602F03CF83B1D0022AA
:1006CC001A605A609A60DA601A610223BB610123D6
:1006DC00BB621023FB6200237B6307F118031846EF
:1006EC0001F038F80346002B01D000F0D1F80F23AD
:1006FC007B600023BB600023FB6000233B61002375
:10070C007B613B1D0021184601F0A4FA0346002B27
:10071C0001D000F0BDF800BF4037BD4680BD0000E1
:10072C0080B586B000AF07F1080300221A605A604A
:10073C009A60DA603B4600221A605A601D4B4FF0FB
:10074C0080421A601B4B41F63F725A60194B0022D3
:10075C009A60184B0922DA60164B00221A61154B6D
:10076C0000229A61134801F0DDFB0346002B01D0F7
:10077C0000F08EF84FF48053BB6007F10803194664
:10078C000C4801F073FD0346002B01D000F080F8FB
:10079C0000233B6000237B603B461946054801F073
:1007AC003BFF0346002B01D000F072F800BF183756
:1007BC00BD4680BD6400002080B586B000AF07F157
:1007CC00080300221A605A609A60DA60274B9B6912
:1007DC00264A43F004039361244B9B6903F0040302
:1007EC007B607B68214B9B69204A43F00803936133
:1007FC001E4B9B6903F008033B603B6800222021E1
:10080C001B4800F076FF00227F211A4800F071FF90
:10081C002023BB600123FB6000233B6102237B612F
:10082C0007F108031946124800F0D2FD7F23BB6084
:10083C000123FB6000233B6102237B6107F108036A
:10084C0019460C4800F0C4FD4FF4E053BB60002384
:10085C00FB6001233B6107F108031946044800F0D3
:10086C00B7FD00BF1837BD4680BD00BF0010024069
:10087C0000080140000C014080B582B000AF7860E8
:10088C00FFF786FC00F02AFB00BF0837BD4680BD91
:10089C0080B400AF72B600BFFEE7000080B500AFB9
:1008AC00B14B1B68013B042B00F28D8201A252F864
:1008BC0023F000BFD5080008EF080008B9090008AC
:1008CC00210B0008A30C0008A74B02221A60A74BAF
:1008DC0000221A60FFF702FD4FF47A7000F0E2FA82
:1008EC007CE2A34B1B68012B08D1A04B1B6818465C
:1008FC00FFF71EFD4FF47A7000F0D4FA0120FFF7D9
:10090C00B9FC0346002B23D09A4B5B78002B22D1E9
:10091C00984B01225A70954B1B68591C964B83FBC4
:10092C0001239A10CB17D21A13469B0013445B0079
:10093C00CA1A8E4B1A608D4B1B681846FFF7F8FCD1
:10094C00894B03221A6042F2107000F057FA02E051
:10095C00884B00225A700220FFF78CFC0346002BB8
:10096C0020D0844B9B78002B40F03182814B0122AC
:10097C009A707E4B1B68013B7C4A13607B4B1B6857
:10098C00002B02DA794B09221A60784B1B68184647
:10099C00FFF7CEFC744B04221A6042F2107000F088
:1009AC002DFA14E2734B00229A7010E2704B1B6804
:1009BC00012B08D16D4B1B681846FFF7B9FC4FF49F
:1009CC007A7000F06FFA0020FFF754FC0346002BFE
:1009DC0016D0684B1B78002B15D1664B01221A7070
:1009EC00624B00221A60614B1B681846FFF7A0FC93
:1009FC005D4B02221A6042F2107000F0FFF902E027
:100A0C005C4B00221A700120FFF734FC0346002BCC
:100A1C0042D00120FFF748FC0346002B1BD0574B5C
:100A2C001B68012B17D1514B1B68591C544B83FB72
:100A3C0001235A10CB17D21A1346DB001344CA1ADF
:100A4C004A4B1A60494B1B681846FFF771FC4FF470
:100A5C007A7000F00BFA474B5B78002B17D1434BA5
:100A6C001B68591C444B83FB01239A10CB17D21AD9
:100A7C0013469B0013445B00CA1A3C4B1A603B4B59
:100A8C001B681846FFF754FC3A4B01225A7042F28D
:100A9C00107000F0B3F902E0364B00225A700220BD
:100AAC00FFF7E8FB0346002B1FD0324B9B78002B43
:100ABC001ED1304B01229A702C4B1B68013B2B4AE8
:100ACC0013602A4B1B68002B02DA284B09221A6090
:100ADC00264B1B681846FFF72BFC234B04221A608D
:100AEC0042F2107000F08AF902E0224B00229A7058
:100AFC00244B1B68012B40F06C811B4B05221A60A8
:100B0C001A4B1B681846FFF713FC4FF47A7000F071
:100B1C0075F95EE1164B1B68012B08D1134B1B6852
:100B2C001846FFF705FC4FF47A7000F0BBF9002073
:100B3C00FFF7A0FB0346002B26D00E4B1B78002B97
:100B4C0025D10C4B01221A70084B00221A60074B5E
:100B5C001B681846FFF7ECFB034B02221A6042F2AB
:100B6C00107000F04BF912E030000020340000202F
:100B7C006000002050000020676666665C00002064
:100B8C00398EE33854000020954B00221A70012056
:100B9C00FFF770FB0346002B23D0914B5B78002BA7
:100BAC0022D18F4B01225A708E4B1B68591C8E4BD5
:100BBC0083FB01239A10CB17D21A13469B001344C4
:100BCC005B00CA1A874B1A60864B1B681846FFF7E6
:100BDC00AFFB864B03221A6042F2107000F00EF944
:100BEC0002E07F4B00225A700220FFF743FB0346C2
:100BFC00002B3BD00220FFF757FB0346002B18D0ED
:100C0C007B4B1B68012B14D1764B1B68013B754A3F
:100C1C001360744B1B68002B02DA724B09221A60AA
:100C2C00704B1B681846FFF783FB4FF47A7000F08B
:100C3C001DF96B4B9B78002B13D16A4B1B68013B46
:100C4C00684A1360674B1B68002B02DA654B09225C
:100C5C001A60644B1B681846FFF76AFB604B012255
:100C6C009A7042F2107000F0C9F802E05C4B00225E
:100C7C009A70604B1B68012B40F0AD805B4B0522DA
:100C8C001A60584B1B681846FFF752FB42F2107063
:100C9C0000F0B4F89FE0584B1B68012B14D1514B5A
:100CAC001B68013B4F4A13604E4B1B68002B02DA4A
:100CBC004C4B00221A604B4B1B681846FFF738FB55
:100CCC004FF47A7000F0EEF80020FFF7D3FA0346E9
:100CDC00002B16D0424B1B78002B15D1404B012218
:100CEC001A70404B00221A603E4B1B681846FFF7E7
:100CFC001FFB3E4B02221A6042F2107000F07EF88D
:100D0C0002E0374B00221A700120FFF7B3FA0346BA
:100D1C00002B23D0324B5B78002B22D1304B01229D
:100D2C005A70304B1B68591C2F4B83FB01239A10B4
:100D3C00CB17D21A13469B0013445B00CA1A294BDB
:100D4C001A60284B1B681846FFF7F2FA274B032250
:100D5C001A6042F2107000F051F802E0204B0022B1
:100D6C005A700220FFF786FA0346002B1FD01C4B4B
:100D7C009B78002B1ED11A4B01229A70194B1B68C1
:100D8C00013B184A1360174B1B68002B02DA154BFA
:100D9C0009221A60134B1B681846FFF7C9FA134B4C
:100DAC0004221A6042F2107000F028F802E00C4B9A
:100DBC0000229A700F4B1B68012B0ED14FF47A70E6
:100DCC0000F01CF809E0094B01221A6006E000BF94
:100DDC0004E000BF02E000BF00E000BF00BF80BD28
:100DEC00500000203400002067666666300000204A
:100DFC005C000020540000206000002080B483B010
:100E0C0000AF78607B68084A82FB03129210DB17F4
:100E1C00D31A064A1360064B00221A6000BF0C3727
:100E2C00BD4680BC704700BF67666666B400002094
:100E3C005400002080B483B000AF78607B68084A0F
:100E4C0082FB03129210DB17D31A064A1360064B6F
:100E5C0000221A6000BF0C37BD4680BC704700BF33
:100E6C0067666666B80000205800002080B483B026
:100E7C0000AF78607B68084A82FB03129210DB1784
:100E8C00D31A064A1360064B00221A6000BF0C37B7
:100E9C00BD4680BC704700BF67666666AC0000202C
:100EAC005C00002080B483B000AF78607B68084A97
:100EBC0082FB03129210DB17D31A064A1360064BFF
:100ECC0000221A6000BF0C37BD4680BC704700BFC3
:100EDC0067666666B00000206000002080B400AF3A
:100EEC00214B1B68002B0BDD1F4B1B68013B1E4A63
:100EFC0013601D4B1B68002B02D11C4B01221A6086
:100F0C001B4B1B68002B0BDD194B1B68013B184A54
:100F1C001360174B1B68002B02D1164B01221A6071
:100F2C00154B1B68002B0BDD134B1B68013B124A46
:100F3C001360114B1B68002B02D1104B01221A605D
:100F4C000F4B1B68002B0BDD0D4B1B68013B0C4A38
:100F5C0013600B4B1B68002B02D10A4B01221A6049
:100F6C0000BFBD4680BC7047B40000205400002078
:100F7C00B800002058000020AC0000205C000020CD
:100F8C00B00000206000002080B485B000AF154B8D
:100F9C009B69144A43F001039361124B9B6903F064
:100FAC000103BB60BB680F4BDB690E4A43F08053F7
:100FBC00D3610C4BDB6903F080537B607B680A4B7D
:100FCC005B68FB60FB6823F0E063FB60FB6843F04D
:100FDC008063FB60044AFB68536000BF1437BD4656
:100FEC0080BC7047001002400000014080B584B006
:100FFC0000AF78607B681B68B3F1804F13D10C4B4A
:10100C00DB690B4A43F00103D361094BDB6903F045
:10101C000103FB60FB68002200211C2000F0A1F9F9
:10102C001C2000F0BAF900BF1037BD4680BD00BFD0
:10103C000010024080B400AFFEE780B400AFFEE7C2
:10104C0080B400AFFEE780B400AFFEE780B400AF21
:10105C00FEE780B400AF00BFBD4680BC704780B4D3
:10106C0000AF00BFBD4680BC704780B400AF00BF6E
:10107C00BD4680BC704780B500AF00F07FF800BF64
:10108C0080BD000080B500AF024800F0E7FF00BF54
:10109C0080BD00BF6400002080B400AF00BFBD461F
:1010AC0080BC70470C480D490D4A002302E0D4580F
:1010BC00C4500433C4188C42F9D30A4A0A4C002396
:1010CC0001E013600432A242FBD3FFF7E5FF01F00D
:1010DC000DFBFFF7BDFA7047000000201400002044
:1010EC009027000814000020C0000020FEE700003C
:1010FC0080B500AF084B1B68074A43F01003136020
:10110C00032000F023F90F2000F008F8FFF73CFF54
:10111C000023184680BD00BF0020024080B582B07D
:10112C0000AF7860124B1A68124B1B7819464FF4BB
:10113C007A73B3FBF1F3B2FBF3F3184600F03BF90F
:10114C000346002B01D001230EE07B680F2B0AD83D
:10115C00002279684FF0FF3000F003F9064A7B68F3
:10116C001360002300E0012318460837BD4680BDFC
:10117C0008000020100000200C00002080B400AFFC
:10118C00054B1B781A46054B1B681344034A136026
:10119C0000BFBD4680BC704710000020BC00002082
:1011AC0080B400AF024B1B681846BD4680BC70472C
:1011BC00BC00002080B485B000AF78607B6803F081
:1011CC000703FB600C4BDB68BB60BA684FF6FF0390
:1011DC001340BB60FB681A02BB68134343F0BF6348
:1011EC0043F40033BB60044ABB68D36000BF1437C0
:1011FC00BD4680BC704700BF00ED00E080B400AF7E
:10120C00044BDB681B0A03F007031846BD4680BC81
:10121C00704700BF00ED00E080B483B000AF034620
:10122C00FB7197F90730002B0BDBFB7903F01F02E6
:10123C00064997F907305B09012000FA02F241F8E0
:10124C00232000BF0C37BD4680BC704700E100E096
:10125C0080B483B000AF03463960FB7197F9073057
:10126C00002B0ADB3B68DAB20C4997F90730120104
:10127C00D2B20B4483F800230AE03B68DAB2084987
:10128C00FB7903F00F03043B1201D2B20B441A7624
:10129C0000BF0C37BD4680BC704700BF00E100E0CA
:1012AC0000ED00E080B489B000AFF860B9607A60FE
:1012BC00FB6803F00703FB61FB69C3F10703042B15
:1012CC0028BF0423BB61FB690433062B02D9FB69DD
:1012DC00033B00E000237B614FF0FF32BB6902FA55
:1012EC0003F3DA43BB681A407B699A404FF0FF3135
:1012FC007B6901FA03F3D9437B680B40134318460F
:10130C002437BD4680BC704780B582B000AF786092
:10131C007B68013BB3F1807F01D301230FE00A4AC4
:10132C007B68013B53600F214FF0FF30FFF790FFBC
:10133C00054B00229A60044B07221A6000231846C2
:10134C000837BD4680BD00BF10E000E080B582B01C
:10135C0000AF78607868FFF72DFF00BF0837BD46F7
:10136C0080BD80B586B000AF0346B9607A60FB7370
:10137C0000237B61FFF742FF78617A68B96878696E
:10138C00FFF790FF024697F90F3011461846FFF70A
:10139C005FFF00BF1837BD4680BD80B582B000AF7F
:1013AC000346FB7197F907301846FFF735FF00BF6E
:1013BC000837BD4680BD80B582B000AF78607868D4
:1013CC00FFF7A2FF034618460837BD4680BD000054
:1013DC0080B48BB000AF7860396000237B6200234F
:1013EC003B6248E101227B6A02FA03F3FB613B6832
:1013FC001B68FA691340BB61BA69FB699A4240F0F9
:10140C0037813B685B68A34A93425ED0A14A934202
:10141C0075D8A14A934258D09F4A93426FD89F4A9D
:10142C00934252D09D4A934269D89D4A93424CD0E4
:10143C009B4A934263D89B4A934246D0994A934223
:10144C005DD8122B2AD8122B59D801A252F823F0AE
:10145C00D7140008B1140008C314000805150008BF
:10146C000B1500080B1500080B1500080B150008D0
:10147C000B1500080B1500080B1500080B150008C0
:10148C000B1500080B1500080B1500080B150008B0
:10149C000B150008B9140008CD140008824A9342B9
:1014AC0013D02CE03B68DB683B6229E03B68DB68CF
:1014BC0004333B6224E03B68DB6808333B621FE08B
:1014CC003B68DB680C333B621AE03B689B68002B83
:1014DC0002D104233B6213E03B689B68012B05D1CE
:1014EC0008233B627B68FA691A6109E008233B62B6
:1014FC007B68FA695A6103E000233B6200E000BF9D
:10150C00BB69FF2B01D87B6801E07B6804337B61EE
:10151C00BB69FF2B02D87B6A9B0002E07B6A083B0D
:10152C009B003B617B691A680F213B6901FA03F34D
:10153C00DB431A40396A3B6901FA03F31A437B69AE
:10154C001A603B685B6803F08053002B00F09080BE
:10155C00564B9B69554A43F001039361534B9B696E
:10156C0003F00103BB60BB68514A7B6A9B080233E2
:10157C0052F82330FB607B6A03F003039B000F22BD
:10158C0002FA03F3DB43FA681340FB607B68494AB9
:10159C0093420DD07B68484A934207D07B68474AF8
:1015AC00934201D1022304E0032302E0012300E073
:1015BC0000237A6A02F0030292009340FA68134304
:1015CC00FB603B497B6A9B080233FA6841F8232095
:1015DC003B685B6803F48033002B06D0384B1A68E9
:1015EC003749BB6913430B6006E0354B1A68BB697E
:1015FC00DB43334913400B603B685B6803F40033F7
:10160C00002B06D02E4B5A682D49BB6913434B60F7
:10161C0006E02B4B5A68BB69DB43294913404B60EE
:10162C003B685B6803F48013002B06D0244B9A684C
:10163C002349BB6913438B6006E0214B9A68BB6955
:10164C00DB431F4913408B603B685B6803F400135A
:10165C00002B06D01A4BDA681949BB691343CB60CF
:10166C0006E0174BDA68BB69DB4315491340CB60C6
:10167C007B6A01337B623B681A687B6A22FA03F34C
:10168C00002B7FF4AFAE00BF00BF2C37BD4680BC33
:10169C00704700BF00003210000031100000221013
:1016AC000000211000001210000011100010024068
:1016BC000000014000080140000C014000100140F6
:1016CC000004014080B485B000AF78600B467B808D
:1016DC007B689A687B881340002B02D00123FB7334
:1016EC0001E00023FB73FB7B18461437BD4680BC1E
:1016FC00704780B483B000AF78600B467B80134694
:10170C007B707B78002B03D07A887B681A6103E0AE
:10171C007B881A047B681A6100BF0C37BD4680BCFD
:10172C00704780B485B000AF78600B467B807B68D7
:10173C00DB68FB607A88FB6813401A04FB68D943AA
:10174C007B880B401A437B681A6100BF1437BD4677
:10175C0080BC704780B586B000AF78607B68002B8A
:10176C0001D101236CE27B681B6803F00103002BA1
:10177C0000F08780924B5B6803F00C03042B0CD0B9
:10178C008F4B5B6803F00C03082B12D18C4B5B68FE
:10179C0003F48033B3F5803F0BD1894B1B6803F402
:1017AC000033002B6CD07B685B68002B68D1012365
:1017BC0046E27B685B68B3F5803F06D1804B1B68C3
:1017CC007F4A43F4803313602EE07B685B68002B08
:1017DC000CD17B4B1B687A4A23F480331360784B13
:1017EC001B68774A23F4802313601DE07B685B68D9
:1017FC00B3F5A02F0CD1724B1B68714A43F48023B4
:10180C0013606F4B1B686E4A43F4803313600BE01C
:10181C006B4B1B686A4A23F480331360684B1B685C
:10182C00674A23F4802313607B685B68002B13D01A
:10183C00FFF7B6FC386108E0FFF7B2FC02463B69E3
:10184C00D31A642B01D90323FAE15D4B1B6803F413
:10185C000033002BF0D014E0FFF7A2FC386108E055
:10186C00FFF79EFC02463B69D31A642B01D9032374
:10187C00E6E1534B1B6803F40033002BF0D100E07E
:10188C0000BF7B681B6803F00203002B63D04C4B3A
:10189C005B6803F00C03002B0BD0494B5B6803F027
:1018AC000C03082B1CD1464B5B6803F48033002BD4
:1018BC0016D1434B1B6803F00203002B05D07B6849
:1018CC001B69012B01D00123BAE13D4B1B6823F0AE
:1018DC00F8027B685B69DB00394913430B603AE023
:1018EC007B681B69002B20D0364B01221A60FFF756
:1018FC0057FC386108E0FFF753FC02463B69D31AEA
:10190C00022B01D903239BE12D4B1B6803F002032F
:10191C00002BF0D02A4B1B6823F0F8027B685B6924
:10192C00DB00274913430B6015E0264B00221A609D
:10193C00FFF736FC386108E0FFF732FC02463B69E2
:10194C00D31A022B01D903237AE11D4B1B6803F038
:10195C000203002BF0D17B681B6803F00803002BFB
:10196C003AD07B689B69002B19D0174B01221A6067
:10197C00FFF716FC386108E0FFF712FC02463B69E2
:10198C00D31A022B01D903235AE10D4B5B6A03F0E6
:10199C000203002BF0D0012000F0A6FA1CE00A4B49
:1019AC0000221A60FFF7FCFB38610FE0FFF7F8FB31
:1019BC0002463B69D31A022B08D9032340E100BF2E
:1019CC000010024000004242800442429E4B5B6A7F
:1019DC0003F00203002BE9D17B681B6803F00403BE
:1019EC00002B00F0A6800023FB75974BDB6903F0FE
:1019FC008053002B0DD1944BDB69934A43F08053F9
:101A0C00D361914BDB6903F08053BB60BB6801234E
:101A1C00FB758E4B1B6803F48073002B18D18B4B1A
:101A2C001B688A4A43F480731360FFF7B9FB386173
:101A3C0008E0FFF7B5FB02463B69D31A642B01D9CA
:101A4C000323FDE0814B1B6803F48073002BF0D063
:101A5C007B68DB68012B06D17B4B1B6A7A4A43F00F
:101A6C00010313622DE07B68DB68002B0CD1764BF5
:101A7C001B6A754A23F001031362734B1B6A724A8B
:101A8C0023F0040313621CE07B68DB68052B0CD18C
:101A9C006D4B1B6A6C4A43F0040313626A4B1B6A5E
:101AAC00694A43F0010313620BE0674B1B6A664AF9
:101ABC0023F001031362644B1B6A634A23F0040393
:101ACC0013627B68DB68002B15D0FFF769FB38616C
:101ADC000AE0FFF765FB02463B69D31A41F28832F4
:101AEC00934201D90323ABE0574B1B6A03F002036B
:101AFC00002BEED014E0FFF753FB38610AE0FFF740
:101B0C004FFB02463B69D31A41F28832934201D90A
:101B1C00032395E04C4B1B6A03F00203002BEED120
:101B2C00FB7D012B05D1484BDB69474A23F08053E1
:101B3C00D3617B68DB69002B00F08180424B5B68D2
:101B4C0003F00C03082B61D07B68DB69022B46D1B8
:101B5C003F4B00221A60FFF723FB386108E0FFF7C8
:101B6C001FFB02463B69D31A022B01D9032367E002
:101B7C00354B1B6803F00073002BF0D17B681B6A9C
:101B8C00B3F5803F08D1304B5B6823F400327B689F
:101B9C009B682D4913434B602B4B5B6823F47412E9
:101BAC007B68196A7B685B6A0B43274913434B605C
:101BBC00274B01221A60FFF7F3FA386108E0FFF7B0
:101BCC00EFFA02463B69D31A022B01D9032337E003
:101BDC001D4B1B6803F00073002BF0D02FE01C4B47
:101BEC0000221A60FFF7DCFA386108E0FFF7D8FA38
:101BFC0002463B69D31A022B01D9032320E0124B76
:101C0C001B6803F00073002BF0D118E07B68DB69D4
:101C1C00012B01D1012313E00B4B5B68FB60FB68CC
:101C2C0003F480327B681B6A9A4206D1FB6803F48A
:101C3C0070127B685B6A9A4201D0012300E000239A
:101C4C0018461837BD4680BD001002400070004099
:101C5C006000424280B584B000AF786039607B6828
:101C6C00002B01D10123D0E06A4B1B6803F0070362
:101C7C003A689A4210D9674B1B6823F007026549F2
:101C8C003B6813430B60634B1B6803F007033A6814
:101C9C009A4201D00123B8E07B681B6803F0020371
:101CAC00002B20D07B681B6803F00403002B05D0AD
:101CBC00594B5B68584A43F4E06353607B681B687C
:101CCC0003F00803002B05D0534B5B68524A43F4D6
:101CDC0060535360504B5B6823F0F0027B689B6849
:101CEC004D4913434B607B681B6803F00103002BC9
:101CFC0040D07B685B68012B07D1474B1B6803F412
:101D0C000033002B15D101237FE07B685B68022B2D
:101D1C0007D1414B1B6803F00073002B09D1012341
:101D2C0073E03D4B1B6803F00203002B01D1012330
:101D3C006BE0394B5B6823F003027B685B683649C8
:101D4C0013434B60FFF72CFAF8600AE0FFF728FA10
:101D5C000246FB68D31A41F28832934201D903231D
:101D6C0053E02D4B5B6803F00C027B685B689B00B7
:101D7C009A42EBD1274B1B6803F007033A689A424F
:101D8C0010D2244B1B6823F0070222493B681343F3
:101D9C000B60204B1B6803F007033A689A4201D092
:101DAC00012332E07B681B6803F00403002B08D08E
:101DBC00194B5B6823F4E0627B68DB6816491343BC
:101DCC004B607B681B6803F00803002B09D0124B97
:101DDC005B6823F460527B681B69DB000E4913437C
:101DEC004B6000F021F802460B4B5B681B0903F0BB
:101DFC000F030A49CB5C22FA03F3094A1360094B1F
:101E0C001B681846FFF78AF9002318461037BD46A1
:101E1C0080BD00BF0020024000100240782700085F
:101E2C00080000200C00002090B48AB000AF2A4BB0
:101E3C003C1D0FCB84E80F0040F201233B800023B4
:101E4C00FB610023BB6100237B6200237B610023C9
:101E5C003B62224B5B68FB61FB6903F00C03042BB8
:101E6C0002D0082B03D02DE01D4B3B622DE0FB690B
:101E7C009B0C03F00F0307F12802134413F8243CC6
:101E8C007B61FB6903F48033002B13D0134B5B682D
:101E9C005B0C03F0010307F12802134413F8283CF0
:101EAC00BB617B690E4A02FB03F2BB69B2FBF3F325
:101EBC007B6204E07B690B4A02FB03F37B627B6A67
:101ECC003B6202E0064B3B6200BF3B6A1846283778
:101EDC00BD4690BC704700BF682700080010024048
:101EEC0000127A0000093D0080B485B000AF786024
:101EFC000A4B1B680A4AA2FB03235B0A7A6802FBA3
:101F0C0003F3FB6000BFFB685A1EFA60002BF9D18B
:101F1C0000BF00BF1437BD4680BC704708000020CE
:101F2C00D34D621080B582B000AF78607B68002B17
:101F3C0001D1012341E07B6893F83D30DBB2002BEB
:101F4C0006D17B68002283F83C207868FFF74EF8B6
:101F5C007B68022283F83D207B681A687B68043317
:101F6C001946104600F06AFA7B68012283F8462075
:101F7C007B68012283F83E207B68012283F83F2096
:101F8C007B68012283F840207B68012283F8412082
:101F9C007B68012283F842207B68012283F843206E
:101FAC007B68012283F844207B68012283F845205A
:101FBC007B68012283F83D20002318460837BD4674
:101FCC0080BD000080B485B000AF78607B6893F86A
:101FDC003D30DBB2012B01D0012335E07B680222BE
:101FEC0083F83D207B681B68DA687B681B6842F0CD
:101FFC000102DA607B681B68164A934209D07B6841
:10200C001B68B3F1804F04D07B681B68124A934263
:10201C0011D17B681B689B6803F00703FB60FB68AE
:10202C00062B10D07B681B681A687B681B6842F013
:10203C0001021A6007E07B681B681A687B681B68E2
:10204C0042F001021A60002318461437BD4680BCCA
:10205C00704700BF002C01400004004080B582B0E6
:10206C0000AF78607B681B681B6903F00203022BCE
:10207C0022D17B681B68DB6803F00203022B1BD1A7
:10208C007B681B686FF002021A617B6801221A7769
:10209C007B681B689B6903F00303002B03D07868F3
:1020AC0000F0B1F905E0786800F0A4F9786800F068
:1020BC00B3F97B6800221A777B681B681B6903F0F5
:1020CC000403042B22D17B681B68DB6803F0040338
:1020DC00042B1BD17B681B686FF004021A617B68B0
:1020EC0002221A777B681B689B6903F44073002BF0
:1020FC0003D0786800F087F905E0786800F07AF989
:10210C00786800F089F97B6800221A777B681B6875
:10211C001B6903F00803082B22D17B681B68DB6862
:10212C0003F00803082B1BD17B681B686FF00802B7
:10213C001A617B6804221A777B681B68DB6903F0E1
:10214C000303002B03D0786800F05DF905E0786894
:10215C0000F050F9786800F05FF97B6800221A777C
:10216C007B681B681B6903F01003102B22D17B6862
:10217C001B68DB6803F01003102B1BD17B681B68FA
:10218C006FF010021A617B6808221A777B681B6853
:10219C00DB6903F44073002B03D0786800F033F94B
:1021AC0005E0786800F026F9786800F035F97B686E
:1021BC0000221A777B681B681B6903F00103012B53
:1021CC000ED17B681B68DB6803F00103012B07D180
:1021DC007B681B686FF001021A617868FEF74CFB94
:1021EC007B681B681B6903F08003802B0ED17B6816
:1021FC001B68DB6803F08003802B07D17B681B68AE
:10220C006FF080021A61786800F067FA7B681B68CF
:10221C001B6903F04003402B0ED17B681B68DB6805
:10222C0003F04003402B07D17B681B686FF0400222
:10223C001A61786800F0F9F87B681B681B6903F079
:10224C002003202B0ED17B681B68DB6803F0200376
:10225C00202B07D17B681B686FF020021A6178680D
:10226C0000F032FA00BF0837BD4680BD80B584B09F
:10227C0000AF786039607B6893F83C30012B01D15A
:10228C000223B3E07B68012283F83C207B680222A6
:10229C0083F83D207B681B689B68FB60FB6823F020
:1022AC007703FB60FB6823F47F43FB607B681B6850
:1022BC00FA689A603B681B68B3F5005F3ED0B3F5D3
:1022CC00005F00F28780B3F5805F00F08580B3F586
:1022DC00805F7FD8702B1AD0702B7BD8602B50D09E
:1022EC00602B77D8502B3CD0502B73D8402B58D028
:1022FC00402B6FD8302B64D0302B6BD8202B60D078
:10230C00202B67D8002B5CD0102B5AD062E07B6856
:10231C0018683B6899683B685A683B68DB6800F052
:10232C005CF97B681B689B68FB60FB6843F0770378
:10233C00FB607B681B68FA689A604EE07B681868E3
:10234C003B6899683B685A683B68DB6800F045F964
:10235C007B681B689A687B681B6842F480429A60B1
:10236C003BE07B6818683B6859683B68DB681A4639
:10237C0000F0BCF87B681B685021184600F013F97C
:10238C002BE07B6818683B6859683B68DB681A4629
:10239C0000F0DAF87B681B686021184600F003F93E
:1023AC001BE07B6818683B6859683B68DB681A4619
:1023BC0000F09CF87B681B684021184600F0F3F88D
:1023CC000BE07B681A683B681B681946104600F0E6
:1023DC00EAF802E000BF00E000BF7B68012283F84E
:1023EC003D207B68002283F83C20002318461037E0
:1023FC00BD4680BD80B483B000AF786000BF0C37A1
:10240C00BD4680BC704780B483B000AF786000BF1D
:10241C000C37BD4680BC704780B483B000AF786089
:10242C0000BF0C37BD4680BC704780B483B000AF92
:10243C00786000BF0C37BD4680BC704780B485B057
:10244C0000AF786039607B681B68FB607B68254A4D
:10245C00934207D07B68B3F1804F03D07B68224A4C
:10246C00934208D1FB6823F07003FB603B685B6808
:10247C00FA681343FB607B681A4A934207D07B6867
:10248C00B3F1804F03D07B68174A934208D1FB68A5
:10249C0023F44073FB603B68DB68FA681343FB6012
:1024AC00FB6823F080023B685B691343FB607B682D
:1024BC00FA681A603B689A687B68DA623B681A684B
:1024CC007B689A627B68074A934203D13B681A691E
:1024DC007B681A637B6801225A6100BF1437BD46C2
:1024EC0080BC7047002C01400004004080B487B0D1
:1024FC0000AFF860B9607A60FB681B6A7B61FB68AF
:10250C001B6A23F00102FB681A62FB689B693B6142
:10251C003B6923F0F0033B617B681B013A69134371
:10252C003B617B6923F00A037B617A69BB681343C7
:10253C007B61FB683A699A61FB687A691A6200BF31
:10254C001C37BD4680BC704780B487B000AFF860C4
:10255C00B9607A60FB681B6A23F01002FB681A6290
:10256C00FB689B697B61FB681B6A3B617B6923F49D
:10257C0070437B617B681B037A6913437B613B6906
:10258C0023F0A0033B61BB681B013A6913433B6119
:10259C00FB687A699A61FB683A691A6200BF1C375A
:1025AC00BD4680BC704780B485B000AF78603960A0
:1025BC007B689B68FB60FB6823F07003FB603A68E8
:1025CC00FB68134343F00703FB607B68FA689A606F
:1025DC0000BF1437BD4680BC704780B487B000AFD5
:1025EC00F860B9607A603B60FB689B687B617B69D3
:1025FC0023F47F437B613B681A027B681A43BB68F8
:10260C0013437A6913437B61FB687A699A6000BF54
:10261C001C37BD4680BC704780B485B000AF786075
:10262C0039607B6893F83C30012B01D1022341E0E7
:10263C007B68012283F83C207B68022283F83D20D2
:10264C007B681B685B68FB607B681B689B68BB6076
:10265C00FB6823F07003FB603B681B68FA6813434C
:10266C00FB607B681B68FA685A607B681B68144ABD
:10267C00934209D07B681B68B3F1804F04D07B6810
:10268C001B68104A93420CD1BB6823F08003BB60DB
:10269C003B685B68BA681343BB607B681B68BA68AD
:1026AC009A607B68012283F83D207B68002283F8C6
:1026BC003C20002318461437BD4680BC704700BF31
:1026CC00002C01400004004080B483B000AF78605F
:1026DC0000BF0C37BD4680BC704780B483B000AFE0
:1026EC00786000BF0C37BD4680BC704770B50026C3
:1026FC000C4D0D4C641BA410A64209D100F022F81D
:10270C0000260A4D0A4C641BA410A64205D170BDCC
:10271C0055F8043B98470136EEE755F8043B9847CB
:10272C000136F2E788270008882700088827000868
:10273C008C27000803460244934200D1704703F8EB
:10274C00011BF9E7F8B500BFF8BC08BC9E46704702
:0C275C00F8B500BFF8BC08BC9E467047F2
:1027680002030405060708090A0B0C0D0E0F1010CA
:102778000000000000000000010203040607080929
:042788003101000813
:04278C000D01000833
:1027900000040008001000000024F40010000000F5
:0427A0000100000034
:04000005080010B12E
:00000001FF
